{
  "_format": "hh-sol-artifact-1",
  "contractName": "SimplePay",
  "sourceName": "contracts/SimplePay.sol",
  "abi": [
    {
      "inputs": [],
      "stateMutability": "nonpayable",
      "type": "constructor"
    },
    {
      "anonymous": false,
      "inputs": [
        {
          "indexed": true,
          "internalType": "address",
          "name": "employee",
          "type": "address"
        },
        {
          "indexed": false,
          "internalType": "uint256",
          "name": "netSalary",
          "type": "uint256"
        },
        {
          "indexed": false,
          "internalType": "uint256",
          "name": "timestamp",
          "type": "uint256"
        }
      ],
      "name": "SalaryTransferred",
      "type": "event"
    },
    {
      "inputs": [
        {
          "internalType": "address",
          "name": "_wallet",
          "type": "address"
        },
        {
          "internalType": "uint256",
          "name": "_basicSalary",
          "type": "uint256"
        },
        {
          "internalType": "uint256",
          "name": "_allowances",
          "type": "uint256"
        },
        {
          "internalType": "uint256",
          "name": "_deductions",
          "type": "uint256"
        }
      ],
      "name": "addEmployee",
      "outputs": [],
      "stateMutability": "nonpayable",
      "type": "function"
    },
    {
      "inputs": [],
      "name": "admin",
      "outputs": [
        {
          "internalType": "address",
          "name": "",
          "type": "address"
        }
      ],
      "stateMutability": "view",
      "type": "function"
    },
    {
      "inputs": [],
      "name": "deposit",
      "outputs": [],
      "stateMutability": "payable",
      "type": "function"
    },
    {
      "inputs": [
        {
          "internalType": "address",
          "name": "",
          "type": "address"
        }
      ],
      "name": "employees",
      "outputs": [
        {
          "internalType": "address",
          "name": "wallet",
          "type": "address"
        },
        {
          "internalType": "uint256",
          "name": "basicSalary",
          "type": "uint256"
        },
        {
          "internalType": "uint256",
          "name": "allowances",
          "type": "uint256"
        },
        {
          "internalType": "uint256",
          "name": "deductions",
          "type": "uint256"
        },
        {
          "internalType": "bool",
          "name": "exists",
          "type": "bool"
        }
      ],
      "stateMutability": "view",
      "type": "function"
    },
    {
      "inputs": [],
      "name": "getBalance",
      "outputs": [
        {
          "internalType": "uint256",
          "name": "",
          "type": "uint256"
        }
      ],
      "stateMutability": "view",
      "type": "function"
    },
    {
      "inputs": [
        {
          "internalType": "address",
          "name": "_wallet",
          "type": "address"
        }
      ],
      "name": "removeEmployee",
      "outputs": [],
      "stateMutability": "nonpayable",
      "type": "function"
    },
    {
      "inputs": [
        {
          "internalType": "address",
          "name": "_wallet",
          "type": "address"
        }
      ],
      "name": "transferSalary",
      "outputs": [],
      "stateMutability": "nonpayable",
      "type": "function"
    },
    {
      "inputs": [
        {
          "internalType": "address",
          "name": "_wallet",
          "type": "address"
        },
        {
          "internalType": "uint256",
          "name": "_basicSalary",
          "type": "uint256"
        },
        {
          "internalType": "uint256",
          "name": "_allowances",
          "type": "uint256"
        },
        {
          "internalType": "uint256",
          "name": "_deductions",
          "type": "uint256"
        }
      ],
      "name": "updateEmployeeSalary",
      "outputs": [],
      "stateMutability": "nonpayable",
      "type": "function"
    },
    {
      "inputs": [
        {
          "internalType": "uint256",
          "name": "_amount",
          "type": "uint256"
        }
      ],
      "name": "withdraw",
      "outputs": [],
      "stateMutability": "nonpayable",
      "type": "function"
    }
  ],
  "bytecode": "0x6080604052348015600e575f5ffd5b50335f5f6101000a81548173ffffffffffffffffffffffffffffffffffffffff021916908373ffffffffffffffffffffffffffffffffffffffff1602179055506112fd8061005b5f395ff3fe608060405260043610610085575f3560e01c806359bdc3ed1161005857806359bdc3ed1461012b578063d067894714610153578063d0e30db014610193578063d108177a1461019d578063f851a440146101c557610085565b806312065fe0146100895780632e1a7d4d146100b35780634a4247d9146100db57806359315c1b14610103575b5f5ffd5b348015610094575f5ffd5b5061009d6101ef565b6040516100aa9190610d79565b60405180910390f35b3480156100be575f5ffd5b506100d960048036038101906100d49190610dc0565b6101f6565b005b3480156100e6575f5ffd5b5061010160048036038101906100fc9190610e45565b61032e565b005b34801561010e575f5ffd5b5061012960048036038101906101249190610ea9565b6105be565b005b348015610136575f5ffd5b50610151600480360381019061014c9190610e45565b6108b7565b005b34801561015e575f5ffd5b5061017960048036038101906101749190610ea9565b610aa6565b60405161018a959493929190610efd565b60405180910390f35b61019b610b03565b005b3480156101a8575f5ffd5b506101c360048036038101906101be9190610ea9565b610b93565b005b3480156101d0575f5ffd5b506101d9610d3d565b6040516101e69190610f4e565b60405180910390f35b5f47905090565b5f5f9054906101000a900473ffffffffffffffffffffffffffffffffffffffff1673ffffffffffffffffffffffffffffffffffffffff163373ffffffffffffffffffffffffffffffffffffffff1614610284576040517f08c379a000000000000000000000000000000000000000000000000000000000815260040161027b90610fe7565b60405180910390fd5b804710156102c7576040517f08c379a00000000000000000000000000000000000000000000000000000000081526004016102be9061104f565b60405180910390fd5b5f5f9054906101000a900473ffffffffffffffffffffffffffffffffffffffff1673ffffffffffffffffffffffffffffffffffffffff166108fc8290811502906040515f60405180830381858888f1935050505015801561032a573d5f5f3e3d5ffd5b5050565b5f5f9054906101000a900473ffffffffffffffffffffffffffffffffffffffff1673ffffffffffffffffffffffffffffffffffffffff163373ffffffffffffffffffffffffffffffffffffffff16146103bc576040517f08c379a00000000000000000000000000000000000000000000000000000000081526004016103b390610fe7565b60405180910390fd5b60015f8573ffffffffffffffffffffffffffffffffffffffff1673ffffffffffffffffffffffffffffffffffffffff1681526020019081526020015f206004015f9054906101000a900460ff1615610449576040517f08c379a0000000000000000000000000000000000000000000000000000000008152600401610440906110b7565b60405180910390fd5b5f73ffffffffffffffffffffffffffffffffffffffff168473ffffffffffffffffffffffffffffffffffffffff16036104b7576040517f08c379a00000000000000000000000000000000000000000000000000000000081526004016104ae9061111f565b60405180910390fd5b6040518060a001604052808573ffffffffffffffffffffffffffffffffffffffff1681526020018481526020018381526020018281526020016001151581525060015f8673ffffffffffffffffffffffffffffffffffffffff1673ffffffffffffffffffffffffffffffffffffffff1681526020019081526020015f205f820151815f015f6101000a81548173ffffffffffffffffffffffffffffffffffffffff021916908373ffffffffffffffffffffffffffffffffffffffff1602179055506020820151816001015560408201518160020155606082015181600301556080820151816004015f6101000a81548160ff02191690831515021790555090505050505050565b5f5f9054906101000a900473ffffffffffffffffffffffffffffffffffffffff1673ffffffffffffffffffffffffffffffffffffffff163373ffffffffffffffffffffffffffffffffffffffff161461064c576040517f08c379a000000000000000000000000000000000000000000000000000000000815260040161064390610fe7565b60405180910390fd5b60015f8273ffffffffffffffffffffffffffffffffffffffff1673ffffffffffffffffffffffffffffffffffffffff1681526020019081526020015f206004015f9054906101000a900460ff166106d8576040517f08c379a00000000000000000000000000000000000000000000000000000000081526004016106cf90611187565b60405180910390fd5b5f60015f8373ffffffffffffffffffffffffffffffffffffffff1673ffffffffffffffffffffffffffffffffffffffff1681526020019081526020015f206040518060a00160405290815f82015f9054906101000a900473ffffffffffffffffffffffffffffffffffffffff1673ffffffffffffffffffffffffffffffffffffffff1673ffffffffffffffffffffffffffffffffffffffff168152602001600182015481526020016002820154815260200160038201548152602001600482015f9054906101000a900460ff16151515158152505090505f8160600151826040015183602001516107c991906111d2565b6107d39190611205565b905080471015610818576040517f08c379a000000000000000000000000000000000000000000000000000000000815260040161080f90611282565b60405180910390fd5b815f015173ffffffffffffffffffffffffffffffffffffffff166108fc8290811502906040515f60405180830381858888f1935050505015801561085e573d5f5f3e3d5ffd5b50815f015173ffffffffffffffffffffffffffffffffffffffff167f01968c3a2f4ab0c5313d079cbf4d7c1ca622defe616bb477603911d0b950e00282426040516108aa9291906112a0565b60405180910390a2505050565b5f5f9054906101000a900473ffffffffffffffffffffffffffffffffffffffff1673ffffffffffffffffffffffffffffffffffffffff163373ffffffffffffffffffffffffffffffffffffffff1614610945576040517f08c379a000000000000000000000000000000000000000000000000000000000815260040161093c90610fe7565b60405180910390fd5b60015f8573ffffffffffffffffffffffffffffffffffffffff1673ffffffffffffffffffffffffffffffffffffffff1681526020019081526020015f206004015f9054906101000a900460ff166109d1576040517f08c379a00000000000000000000000000000000000000000000000000000000081526004016109c890611187565b60405180910390fd5b8260015f8673ffffffffffffffffffffffffffffffffffffffff1673ffffffffffffffffffffffffffffffffffffffff1681526020019081526020015f20600101819055508160015f8673ffffffffffffffffffffffffffffffffffffffff1673ffffffffffffffffffffffffffffffffffffffff1681526020019081526020015f20600201819055508060015f8673ffffffffffffffffffffffffffffffffffffffff1673ffffffffffffffffffffffffffffffffffffffff1681526020019081526020015f206003018190555050505050565b6001602052805f5260405f205f91509050805f015f9054906101000a900473ffffffffffffffffffffffffffffffffffffffff1690806001015490806002015490806003015490806004015f9054906101000a900460ff16905085565b5f5f9054906101000a900473ffffffffffffffffffffffffffffffffffffffff1673ffffffffffffffffffffffffffffffffffffffff163373ffffffffffffffffffffffffffffffffffffffff1614610b91576040517f08c379a0000000000000000000000000000000000000000000000000000000008152600401610b8890610fe7565b60405180910390fd5b565b5f5f9054906101000a900473ffffffffffffffffffffffffffffffffffffffff1673ffffffffffffffffffffffffffffffffffffffff163373ffffffffffffffffffffffffffffffffffffffff1614610c21576040517f08c379a0000000000000000000000000000000000000000000000000000000008152600401610c1890610fe7565b60405180910390fd5b60015f8273ffffffffffffffffffffffffffffffffffffffff1673ffffffffffffffffffffffffffffffffffffffff1681526020019081526020015f206004015f9054906101000a900460ff16610cad576040517f08c379a0000000000000000000000000000000000000000000000000000000008152600401610ca490611187565b60405180910390fd5b60015f8273ffffffffffffffffffffffffffffffffffffffff1673ffffffffffffffffffffffffffffffffffffffff1681526020019081526020015f205f5f82015f6101000a81549073ffffffffffffffffffffffffffffffffffffffff0219169055600182015f9055600282015f9055600382015f9055600482015f6101000a81549060ff0219169055505050565b5f5f9054906101000a900473ffffffffffffffffffffffffffffffffffffffff1681565b5f819050919050565b610d7381610d61565b82525050565b5f602082019050610d8c5f830184610d6a565b92915050565b5f5ffd5b610d9f81610d61565b8114610da9575f5ffd5b50565b5f81359050610dba81610d96565b92915050565b5f60208284031215610dd557610dd4610d92565b5b5f610de284828501610dac565b91505092915050565b5f73ffffffffffffffffffffffffffffffffffffffff82169050919050565b5f610e1482610deb565b9050919050565b610e2481610e0a565b8114610e2e575f5ffd5b50565b5f81359050610e3f81610e1b565b92915050565b5f5f5f5f60808587031215610e5d57610e5c610d92565b5b5f610e6a87828801610e31565b9450506020610e7b87828801610dac565b9350506040610e8c87828801610dac565b9250506060610e9d87828801610dac565b91505092959194509250565b5f60208284031215610ebe57610ebd610d92565b5b5f610ecb84828501610e31565b91505092915050565b610edd81610e0a565b82525050565b5f8115159050919050565b610ef781610ee3565b82525050565b5f60a082019050610f105f830188610ed4565b610f1d6020830187610d6a565b610f2a6040830186610d6a565b610f376060830185610d6a565b610f446080830184610eee565b9695505050505050565b5f602082019050610f615f830184610ed4565b92915050565b5f82825260208201905092915050565b7f4f6e6c792061646d696e2063616e20706572666f726d207468697320616374695f8201527f6f6e000000000000000000000000000000000000000000000000000000000000602082015250565b5f610fd1602283610f67565b9150610fdc82610f77565b604082019050919050565b5f6020820190508181035f830152610ffe81610fc5565b9050919050565b7f496e73756666696369656e742062616c616e63650000000000000000000000005f82015250565b5f611039601483610f67565b915061104482611005565b602082019050919050565b5f6020820190508181035f8301526110668161102d565b9050919050565b7f456d706c6f79656520616c7265616479206578697374730000000000000000005f82015250565b5f6110a1601783610f67565b91506110ac8261106d565b602082019050919050565b5f6020820190508181035f8301526110ce81611095565b9050919050565b7f496e76616c69642077616c6c65742061646472657373000000000000000000005f82015250565b5f611109601683610f67565b9150611114826110d5565b602082019050919050565b5f6020820190508181035f830152611136816110fd565b9050919050565b7f456d706c6f79656520646f6573206e6f742065786973740000000000000000005f82015250565b5f611171601783610f67565b915061117c8261113d565b602082019050919050565b5f6020820190508181035f83015261119e81611165565b9050919050565b7f4e487b71000000000000000000000000000000000000000000000000000000005f52601160045260245ffd5b5f6111dc82610d61565b91506111e783610d61565b92508282019050808211156111ff576111fe6111a5565b5b92915050565b5f61120f82610d61565b915061121a83610d61565b9250828203905081811115611232576112316111a5565b5b92915050565b7f496e73756666696369656e7420636f6e74726163742062616c616e63650000005f82015250565b5f61126c601d83610f67565b915061127782611238565b602082019050919050565b5f6020820190508181035f83015261129981611260565b9050919050565b5f6040820190506112b35f830185610d6a565b6112c06020830184610d6a565b939250505056fea2646970667358221220e00b8a44b63b0b31b510ca8e7c6822f43ac0be236894b6ee0a44b037caff23f664736f6c634300081c0033",
  "linkReferences": {},
  "deployedLinkReferences": {}
}