{
  "_format": "hh-sol-artifact-1",
  "contractName": "SimplePay",
  "sourceName": "contracts/SimplePay.sol",
  "abi": [
    {
      "inputs": [],
      "stateMutability": "nonpayable",
      "type": "constructor"
    },
    {
      "anonymous": false,
      "inputs": [
        {
          "indexed": true,
          "internalType": "address",
          "name": "employee",
          "type": "address"
        },
        {
          "indexed": false,
          "internalType": "uint256",
          "name": "netSalary",
          "type": "uint256"
        },
        {
          "indexed": false,
          "internalType": "uint256",
          "name": "timestamp",
          "type": "uint256"
        }
      ],
      "name": "SalaryTransferred",
      "type": "event"
    },
    {
      "inputs": [
        {
          "internalType": "address",
          "name": "_wallet",
          "type": "address"
        },
        {
          "internalType": "uint256",
          "name": "_basicSalary",
          "type": "uint256"
        },
        {
          "internalType": "uint256",
          "name": "_allowances",
          "type": "uint256"
        },
        {
          "internalType": "uint256",
          "name": "_deductions",
          "type": "uint256"
        }
      ],
      "name": "addEmployee",
      "outputs": [],
      "stateMutability": "nonpayable",
      "type": "function"
    },
    {
      "inputs": [],
      "name": "admin",
      "outputs": [
        {
          "internalType": "address",
          "name": "",
          "type": "address"
        }
      ],
      "stateMutability": "view",
      "type": "function"
    },
    {
      "inputs": [],
      "name": "deposit",
      "outputs": [],
      "stateMutability": "payable",
      "type": "function"
    },
    {
      "inputs": [
        {
          "internalType": "uint256",
          "name": "",
          "type": "uint256"
        }
      ],
      "name": "employeeAddresses",
      "outputs": [
        {
          "internalType": "address",
          "name": "",
          "type": "address"
        }
      ],
      "stateMutability": "view",
      "type": "function"
    },
    {
      "inputs": [
        {
          "internalType": "address",
          "name": "",
          "type": "address"
        }
      ],
      "name": "employees",
      "outputs": [
        {
          "internalType": "address",
          "name": "wallet",
          "type": "address"
        },
        {
          "internalType": "uint256",
          "name": "basicSalary",
          "type": "uint256"
        },
        {
          "internalType": "uint256",
          "name": "allowances",
          "type": "uint256"
        },
        {
          "internalType": "uint256",
          "name": "deductions",
          "type": "uint256"
        },
        {
          "internalType": "bool",
          "name": "exists",
          "type": "bool"
        }
      ],
      "stateMutability": "view",
      "type": "function"
    },
    {
      "inputs": [],
      "name": "getBalance",
      "outputs": [
        {
          "internalType": "uint256",
          "name": "",
          "type": "uint256"
        }
      ],
      "stateMutability": "view",
      "type": "function"
    },
    {
      "inputs": [],
      "name": "getEmployeeDetails",
      "outputs": [
        {
          "components": [
            {
              "internalType": "address",
              "name": "wallet",
              "type": "address"
            },
            {
              "internalType": "uint256",
              "name": "basicSalary",
              "type": "uint256"
            },
            {
              "internalType": "uint256",
              "name": "allowances",
              "type": "uint256"
            },
            {
              "internalType": "uint256",
              "name": "deductions",
              "type": "uint256"
            },
            {
              "internalType": "bool",
              "name": "exists",
              "type": "bool"
            }
          ],
          "internalType": "struct SimplePay.Employee[]",
          "name": "",
          "type": "tuple[]"
        }
      ],
      "stateMutability": "view",
      "type": "function"
    },
    {
      "inputs": [],
      "name": "isAdmin",
      "outputs": [
        {
          "internalType": "bool",
          "name": "",
          "type": "bool"
        }
      ],
      "stateMutability": "view",
      "type": "function"
    },
    {
      "inputs": [
        {
          "internalType": "address",
          "name": "_wallet",
          "type": "address"
        }
      ],
      "name": "removeEmployee",
      "outputs": [],
      "stateMutability": "nonpayable",
      "type": "function"
    },
    {
      "inputs": [
        {
          "internalType": "address",
          "name": "_wallet",
          "type": "address"
        }
      ],
      "name": "transferSalary",
      "outputs": [],
      "stateMutability": "nonpayable",
      "type": "function"
    },
    {
      "inputs": [
        {
          "internalType": "address",
          "name": "_wallet",
          "type": "address"
        },
        {
          "internalType": "uint256",
          "name": "_basicSalary",
          "type": "uint256"
        },
        {
          "internalType": "uint256",
          "name": "_allowances",
          "type": "uint256"
        },
        {
          "internalType": "uint256",
          "name": "_deductions",
          "type": "uint256"
        }
      ],
      "name": "updateEmployeeSalary",
      "outputs": [],
      "stateMutability": "nonpayable",
      "type": "function"
    },
    {
      "inputs": [
        {
          "internalType": "uint256",
          "name": "_amount",
          "type": "uint256"
        }
      ],
      "name": "withdraw",
      "outputs": [],
      "stateMutability": "nonpayable",
      "type": "function"
    }
  ],
  "bytecode": "0x6080604052348015600e575f5ffd5b50335f5f6101000a81548173ffffffffffffffffffffffffffffffffffffffff021916908373ffffffffffffffffffffffffffffffffffffffff160217905550611c068061005b5f395ff3fe6080604052600436106100a6575f3560e01c8063a9f6ad6611610063578063a9f6ad66146101b0578063b6db75a0146101da578063d067894714610204578063d0e30db014610244578063d108177a1461024e578063f851a44014610276576100a6565b806312065fe0146100aa5780632e1a7d4d146100d45780634a4247d9146100fc57806359315c1b1461012457806359bdc3ed1461014c5780637521720b14610174575b5f5ffd5b3480156100b5575f5ffd5b506100be6102a0565b6040516100cb91906113b7565b60405180910390f35b3480156100df575f5ffd5b506100fa60048036038101906100f591906113fe565b6102a7565b005b348015610107575f5ffd5b50610122600480360381019061011d9190611483565b6103df565b005b34801561012f575f5ffd5b5061014a600480360381019061014591906114e7565b6106cf565b005b348015610157575f5ffd5b50610172600480360381019061016d9190611483565b6109c8565b005b34801561017f575f5ffd5b5061019a600480360381019061019591906113fe565b610bb7565b6040516101a79190611521565b60405180910390f35b3480156101bb575f5ffd5b506101c4610bf2565b6040516101d19190611680565b60405180910390f35b3480156101e5575f5ffd5b506101ee610e7e565b6040516101fb91906116af565b60405180910390f35b34801561020f575f5ffd5b5061022a600480360381019061022591906114e7565b610ed3565b60405161023b9594939291906116c8565b60405180910390f35b61024c610f30565b005b348015610259575f5ffd5b50610274600480360381019061026f91906114e7565b610fc0565b005b348015610281575f5ffd5b5061028a611261565b6040516102979190611521565b60405180910390f35b5f47905090565b5f5f9054906101000a900473ffffffffffffffffffffffffffffffffffffffff1673ffffffffffffffffffffffffffffffffffffffff163373ffffffffffffffffffffffffffffffffffffffff1614610335576040517f08c379a000000000000000000000000000000000000000000000000000000000815260040161032c90611799565b60405180910390fd5b80471015610378576040517f08c379a000000000000000000000000000000000000000000000000000000000815260040161036f90611801565b60405180910390fd5b5f5f9054906101000a900473ffffffffffffffffffffffffffffffffffffffff1673ffffffffffffffffffffffffffffffffffffffff166108fc8290811502906040515f60405180830381858888f193505050501580156103db573d5f5f3e3d5ffd5b5050565b5f5f9054906101000a900473ffffffffffffffffffffffffffffffffffffffff1673ffffffffffffffffffffffffffffffffffffffff163373ffffffffffffffffffffffffffffffffffffffff161461046d576040517f08c379a000000000000000000000000000000000000000000000000000000000815260040161046490611799565b60405180910390fd5b60015f8573ffffffffffffffffffffffffffffffffffffffff1673ffffffffffffffffffffffffffffffffffffffff1681526020019081526020015f206004015f9054906101000a900460ff16156104fa576040517f08c379a00000000000000000000000000000000000000000000000000000000081526004016104f190611869565b60405180910390fd5b5f73ffffffffffffffffffffffffffffffffffffffff168473ffffffffffffffffffffffffffffffffffffffff1603610568576040517f08c379a000000000000000000000000000000000000000000000000000000000815260040161055f906118d1565b60405180910390fd5b6040518060a001604052808573ffffffffffffffffffffffffffffffffffffffff1681526020018481526020018381526020018281526020016001151581525060015f8673ffffffffffffffffffffffffffffffffffffffff1673ffffffffffffffffffffffffffffffffffffffff1681526020019081526020015f205f820151815f015f6101000a81548173ffffffffffffffffffffffffffffffffffffffff021916908373ffffffffffffffffffffffffffffffffffffffff1602179055506020820151816001015560408201518160020155606082015181600301556080820151816004015f6101000a81548160ff021916908315150217905550905050600284908060018154018082558091505060019003905f5260205f20015f9091909190916101000a81548173ffffffffffffffffffffffffffffffffffffffff021916908373ffffffffffffffffffffffffffffffffffffffff16021790555050505050565b5f5f9054906101000a900473ffffffffffffffffffffffffffffffffffffffff1673ffffffffffffffffffffffffffffffffffffffff163373ffffffffffffffffffffffffffffffffffffffff161461075d576040517f08c379a000000000000000000000000000000000000000000000000000000000815260040161075490611799565b60405180910390fd5b60015f8273ffffffffffffffffffffffffffffffffffffffff1673ffffffffffffffffffffffffffffffffffffffff1681526020019081526020015f206004015f9054906101000a900460ff166107e9576040517f08c379a00000000000000000000000000000000000000000000000000000000081526004016107e090611939565b60405180910390fd5b5f60015f8373ffffffffffffffffffffffffffffffffffffffff1673ffffffffffffffffffffffffffffffffffffffff1681526020019081526020015f206040518060a00160405290815f82015f9054906101000a900473ffffffffffffffffffffffffffffffffffffffff1673ffffffffffffffffffffffffffffffffffffffff1673ffffffffffffffffffffffffffffffffffffffff168152602001600182015481526020016002820154815260200160038201548152602001600482015f9054906101000a900460ff16151515158152505090505f8160600151826040015183602001516108da9190611984565b6108e491906119b7565b905080471015610929576040517f08c379a000000000000000000000000000000000000000000000000000000000815260040161092090611a34565b60405180910390fd5b815f015173ffffffffffffffffffffffffffffffffffffffff166108fc8290811502906040515f60405180830381858888f1935050505015801561096f573d5f5f3e3d5ffd5b50815f015173ffffffffffffffffffffffffffffffffffffffff167f01968c3a2f4ab0c5313d079cbf4d7c1ca622defe616bb477603911d0b950e00282426040516109bb929190611a52565b60405180910390a2505050565b5f5f9054906101000a900473ffffffffffffffffffffffffffffffffffffffff1673ffffffffffffffffffffffffffffffffffffffff163373ffffffffffffffffffffffffffffffffffffffff1614610a56576040517f08c379a0000000000000000000000000000000000000000000000000000000008152600401610a4d90611799565b60405180910390fd5b60015f8573ffffffffffffffffffffffffffffffffffffffff1673ffffffffffffffffffffffffffffffffffffffff1681526020019081526020015f206004015f9054906101000a900460ff16610ae2576040517f08c379a0000000000000000000000000000000000000000000000000000000008152600401610ad990611939565b60405180910390fd5b8260015f8673ffffffffffffffffffffffffffffffffffffffff1673ffffffffffffffffffffffffffffffffffffffff1681526020019081526020015f20600101819055508160015f8673ffffffffffffffffffffffffffffffffffffffff1673ffffffffffffffffffffffffffffffffffffffff1681526020019081526020015f20600201819055508060015f8673ffffffffffffffffffffffffffffffffffffffff1673ffffffffffffffffffffffffffffffffffffffff1681526020019081526020015f206003018190555050505050565b60028181548110610bc6575f80fd5b905f5260205f20015f915054906101000a900473ffffffffffffffffffffffffffffffffffffffff1681565b60605f5f9054906101000a900473ffffffffffffffffffffffffffffffffffffffff1673ffffffffffffffffffffffffffffffffffffffff163373ffffffffffffffffffffffffffffffffffffffff1614610c82576040517f08c379a0000000000000000000000000000000000000000000000000000000008152600401610c7990611799565b60405180910390fd5b5f60028054905011610cc9576040517f08c379a0000000000000000000000000000000000000000000000000000000008152600401610cc090611ac3565b60405180910390fd5b5f60028054905067ffffffffffffffff811115610ce957610ce8611ae1565b5b604051908082528060200260200182016040528015610d2257816020015b610d0f61135d565b815260200190600190039081610d075790505b5090505f5f90505b600280549050811015610e76575f60028281548110610d4c57610d4b611b0e565b5b905f5260205f20015f9054906101000a900473ffffffffffffffffffffffffffffffffffffffff16905060015f8273ffffffffffffffffffffffffffffffffffffffff1673ffffffffffffffffffffffffffffffffffffffff1681526020019081526020015f206040518060a00160405290815f82015f9054906101000a900473ffffffffffffffffffffffffffffffffffffffff1673ffffffffffffffffffffffffffffffffffffffff1673ffffffffffffffffffffffffffffffffffffffff168152602001600182015481526020016002820154815260200160038201548152602001600482015f9054906101000a900460ff161515151581525050838381518110610e5d57610e5c611b0e565b5b6020026020010181905250508080600101915050610d2a565b508091505090565b5f5f5f9054906101000a900473ffffffffffffffffffffffffffffffffffffffff1673ffffffffffffffffffffffffffffffffffffffff163373ffffffffffffffffffffffffffffffffffffffff1614905090565b6001602052805f5260405f205f91509050805f015f9054906101000a900473ffffffffffffffffffffffffffffffffffffffff1690806001015490806002015490806003015490806004015f9054906101000a900460ff16905085565b5f5f9054906101000a900473ffffffffffffffffffffffffffffffffffffffff1673ffffffffffffffffffffffffffffffffffffffff163373ffffffffffffffffffffffffffffffffffffffff1614610fbe576040517f08c379a0000000000000000000000000000000000000000000000000000000008152600401610fb590611799565b60405180910390fd5b565b5f5f9054906101000a900473ffffffffffffffffffffffffffffffffffffffff1673ffffffffffffffffffffffffffffffffffffffff163373ffffffffffffffffffffffffffffffffffffffff161461104e576040517f08c379a000000000000000000000000000000000000000000000000000000000815260040161104590611799565b60405180910390fd5b60015f8273ffffffffffffffffffffffffffffffffffffffff1673ffffffffffffffffffffffffffffffffffffffff1681526020019081526020015f206004015f9054906101000a900460ff166110da576040517f08c379a00000000000000000000000000000000000000000000000000000000081526004016110d190611939565b60405180910390fd5b60015f8273ffffffffffffffffffffffffffffffffffffffff1673ffffffffffffffffffffffffffffffffffffffff1681526020019081526020015f205f5f82015f6101000a81549073ffffffffffffffffffffffffffffffffffffffff0219169055600182015f9055600282015f9055600382015f9055600482015f6101000a81549060ff021916905550505f61117182611285565b90506002600160028054905061118791906119b7565b8154811061119857611197611b0e565b5b905f5260205f20015f9054906101000a900473ffffffffffffffffffffffffffffffffffffffff16600282815481106111d4576111d3611b0e565b5b905f5260205f20015f6101000a81548173ffffffffffffffffffffffffffffffffffffffff021916908373ffffffffffffffffffffffffffffffffffffffff160217905550600280548061122b5761122a611b3b565b5b600190038181905f5260205f20015f6101000a81549073ffffffffffffffffffffffffffffffffffffffff021916905590555050565b5f5f9054906101000a900473ffffffffffffffffffffffffffffffffffffffff1681565b5f5f5f90505b60028054905081101561131c578273ffffffffffffffffffffffffffffffffffffffff16600282815481106112c3576112c2611b0e565b5b905f5260205f20015f9054906101000a900473ffffffffffffffffffffffffffffffffffffffff1673ffffffffffffffffffffffffffffffffffffffff160361130f5780915050611358565b808060010191505061128b565b506040517f08c379a000000000000000000000000000000000000000000000000000000000815260040161134f90611bb2565b60405180910390fd5b919050565b6040518060a001604052805f73ffffffffffffffffffffffffffffffffffffffff1681526020015f81526020015f81526020015f81526020015f151581525090565b5f819050919050565b6113b18161139f565b82525050565b5f6020820190506113ca5f8301846113a8565b92915050565b5f5ffd5b6113dd8161139f565b81146113e7575f5ffd5b50565b5f813590506113f8816113d4565b92915050565b5f60208284031215611413576114126113d0565b5b5f611420848285016113ea565b91505092915050565b5f73ffffffffffffffffffffffffffffffffffffffff82169050919050565b5f61145282611429565b9050919050565b61146281611448565b811461146c575f5ffd5b50565b5f8135905061147d81611459565b92915050565b5f5f5f5f6080858703121561149b5761149a6113d0565b5b5f6114a88782880161146f565b94505060206114b9878288016113ea565b93505060406114ca878288016113ea565b92505060606114db878288016113ea565b91505092959194509250565b5f602082840312156114fc576114fb6113d0565b5b5f6115098482850161146f565b91505092915050565b61151b81611448565b82525050565b5f6020820190506115345f830184611512565b92915050565b5f81519050919050565b5f82825260208201905092915050565b5f819050602082019050919050565b61156c81611448565b82525050565b61157b8161139f565b82525050565b5f8115159050919050565b61159581611581565b82525050565b60a082015f8201516115af5f850182611563565b5060208201516115c26020850182611572565b5060408201516115d56040850182611572565b5060608201516115e86060850182611572565b5060808201516115fb608085018261158c565b50505050565b5f61160c838361159b565b60a08301905092915050565b5f602082019050919050565b5f61162e8261153a565b6116388185611544565b935061164383611554565b805f5b8381101561167357815161165a8882611601565b975061166583611618565b925050600181019050611646565b5085935050505092915050565b5f6020820190508181035f8301526116988184611624565b905092915050565b6116a981611581565b82525050565b5f6020820190506116c25f8301846116a0565b92915050565b5f60a0820190506116db5f830188611512565b6116e860208301876113a8565b6116f560408301866113a8565b61170260608301856113a8565b61170f60808301846116a0565b9695505050505050565b5f82825260208201905092915050565b7f4f6e6c792061646d696e2063616e20706572666f726d207468697320616374695f8201527f6f6e000000000000000000000000000000000000000000000000000000000000602082015250565b5f611783602283611719565b915061178e82611729565b604082019050919050565b5f6020820190508181035f8301526117b081611777565b9050919050565b7f496e73756666696369656e742062616c616e63650000000000000000000000005f82015250565b5f6117eb601483611719565b91506117f6826117b7565b602082019050919050565b5f6020820190508181035f830152611818816117df565b9050919050565b7f456d706c6f79656520616c7265616479206578697374730000000000000000005f82015250565b5f611853601783611719565b915061185e8261181f565b602082019050919050565b5f6020820190508181035f83015261188081611847565b9050919050565b7f496e76616c69642077616c6c65742061646472657373000000000000000000005f82015250565b5f6118bb601683611719565b91506118c682611887565b602082019050919050565b5f6020820190508181035f8301526118e8816118af565b9050919050565b7f456d706c6f79656520646f6573206e6f742065786973740000000000000000005f82015250565b5f611923601783611719565b915061192e826118ef565b602082019050919050565b5f6020820190508181035f83015261195081611917565b9050919050565b7f4e487b71000000000000000000000000000000000000000000000000000000005f52601160045260245ffd5b5f61198e8261139f565b91506119998361139f565b92508282019050808211156119b1576119b0611957565b5b92915050565b5f6119c18261139f565b91506119cc8361139f565b92508282039050818111156119e4576119e3611957565b5b92915050565b7f496e73756666696369656e7420636f6e74726163742062616c616e63650000005f82015250565b5f611a1e601d83611719565b9150611a29826119ea565b602082019050919050565b5f6020820190508181035f830152611a4b81611a12565b9050919050565b5f604082019050611a655f8301856113a8565b611a7260208301846113a8565b9392505050565b7f4e6f20656d706c6f7965657320666f756e6400000000000000000000000000005f82015250565b5f611aad601283611719565b9150611ab882611a79565b602082019050919050565b5f6020820190508181035f830152611ada81611aa1565b9050919050565b7f4e487b71000000000000000000000000000000000000000000000000000000005f52604160045260245ffd5b7f4e487b71000000000000000000000000000000000000000000000000000000005f52603260045260245ffd5b7f4e487b71000000000000000000000000000000000000000000000000000000005f52603160045260245ffd5b7f41646472657373206e6f7420666f756e640000000000000000000000000000005f82015250565b5f611b9c601183611719565b9150611ba782611b68565b602082019050919050565b5f6020820190508181035f830152611bc981611b90565b905091905056fea2646970667358221220801165aee3b1f58f100c217052cb8f9ea6f32da96a9e400a5ad965621b61ce2364736f6c634300081c0033",
  "linkReferences": {},
  "deployedLinkReferences": {}
}